:100000000C942A000C9475000C9475000C947500E7
:100010000C9475000C9475000C9475000C9475008C
:100020000C9475000C9475000C9475000C9475007C
:100030000C9475000C9436000C9475000C947500AB
:100040000C9475000C9475000C9475000C9475005C
:100050000C94750011241FBECFE5D8E0DEBFCDBFE4
:0C0060000E945B000C943400F894FFCF69
:10006C001F920F920FB60F9211242F933F934F9321
:10007C005F936F937F938F939F93AF93BF93EF9304
:10008C00FF938CB10E947100FF91EF91BF91AF91E2
:10009C009F918F917F916F915F914F913F912F9194
:0A00AC000F900FBE0F901F901895E3
:1000B6000E946B0063E081E090E00E946400789407
:0200C600FFCF6A
:0E00C80087B3806B87BB8DB183658DB90895BA
:0C00D600539A549A579A87E689B9089506
:0800E2008FB9779BFECF089552
:0400EA000C94000072
:00000001FF
