:100000000C942A000C9477000C9477000C947700E1
:100010000C9477000C9477000C9477000C94770084
:100020000C9477000C9477000C9477000C94770074
:100030000C9436000C9477000C9477000C947700A5
:100040000C9477000C9477000C9477000C94770054
:100050000C94770011241FBECFE5D8E0DEBFCDBFE2
:0C0060000E946B000C943400F894FFCF59
:10006C001F920F920FB60F9211242F933F934F9321
:10007C005F936F937F938F939F93AF93BF93EF9304
:10008C00FF930E945A00FF91EF91BF91AF919F9106
:10009C008F917F916F915F914F913F912F910F9025
:0800AC000FBE0F901F90189584
:1000B4008FB1813311F4AF9A0895823311F4AF985C
:1000C4000895833311F4AA9A0895843309F4AA98FD
:0200D40008958D
:0E00D60084B38FEF84BB0E9472007894FFCF3A
:0A00E400BE9A8DB1836C8DB90895AA
:0400EE000C9400006E
:00000001FF
